:0600000098310028000009
:0800080083018031200077081C
:10001000A0007808A1007908A2007A08A300850151
:1000200091308400801E1628911A1F282008F7009E
:100030002108F8002208F9002308FA00090080319D
:100040002128203024078400203085000318850AE9
:10005000911E282823001908800020002408A500EC
:10006000013024072500B1003108B2001130B3007F
:100070003308F8013202031840283208F7004C28F0
:10008000F7010830B400B20DF70D330877020318FA
:10009000F700F80DB40B432877082000A400911254
:1000A0008031162821008F1222008F1621000E1198
:1000B00022000E1521008F1022008F1021000F1139
:1000C00022000F1121008F1122008F1121001E1616
:1000D0009E161E139E131D141E109E101E112030FE
:1000E00023008C000130900000308D008F00C03064
:1000F0008B0421009116983120007828213085004A
:10010000183084000008031993280530F800F7011F
:10011000F70B8828F80B87282E30F700F70B8E286E
:100120009128800B8528080022008F10643023005E
:10013000C80020007E2022000F1164302300C80078
:1001400020007E2022008F1164302300C800200090
:100150007E2008001030F80021001D088339780443
:100160009D000F30F8001F08F03978049F000D3013
:10017000F700F70BB9289D149D18BC281C08FA003D
:100180001B08F8001C08F900200008008318CC2880
:100190002130850022308400F701F801F901FA01CD
:1001A0002300D201D301D401D5014F084E044D04E0
:1001B0004C0403190B292030D6000310C80DC90DBB
:1001C000CA0DCB0DD20DD30DD40DD50D4F08550250
:1001D000031DF4284E085402031DF4284D08530251
:1001E000031DF4284C085202031C05294C08D202B6
:1001F0004D08031C4D0FD3024E08031C4E0FD402B2
:100200004F08031C4F0FD5020314F70DF80DF90D1D
:10021000FA0DD60BDD28520880005308813F5408A0
:10022000823F5508833F200008002300A301A2015C
:10023000A101A0012200EE016E08133C031C31292C
:100240002000AA2078082300A0077908A13D0030EB
:10025000A23DA33D0D30F700F70B2C292200EE0A3A
:100260001C29831023002308CB002208CA00210880
:10027000C9002008C800CF01CE01CD011430CC0048
:100280002000C62078082300A5007708A4002408D1
:10029000F8002508F900983120009B282300A608C3
:1002A000031D7429200035082200C20020003608F2
:1002B0002200C300200037082200C40020003808B4
:1002C0002200C500200039082200C60020003A089C
:1002D0002200C70020003B082200C80020003C0884
:1002E0002200C90093292300260B822950302200C6
:1002F000C200C301C401C501C601C701C801C901CB
:10030000932923002608023C031D9429593022001A
:10031000C200C301230027082200C400C501C60192
:10032000C701C801C9012300A80128080F3C031C0C
:10033000CA29BE3028078400203085000318850AAA
:100340000008A9002908AA0021008D1022008D10A4
:100350000830F800AB290000F817BE29F813230075
:10036000AA0C220003188D14031C8D107817BE29C7
:100370007813F80BAF29BC2900008D148430840059
:10038000840BC0290000F81BAE29781BB829230074
:10039000A80A9529200008002200E908031D282A40
:1003A0006808013C031C282A031DE0296708863CD5
:1003B000031C282A031DE02966089F3C031C282AE9
:1003C00020000D191E2ACE307107840020308500D0
:1003D0000318850A05082300AB000408AA002100C1
:1003E0000D1520000D19F2290830F7002300AC018B
:1003F000F7170A2AF7130A2A031020000D1903140D
:100400002300AC0C77170A2A7713F70BFC292C086A
:10041000F800162A8430F71B2430F800F80B0E2A57
:10042000112AF71BFA29771B042AFC292B088500BF
:100430002A08840078088000F10A20000130220098
:10044000E6070318E70A0319E80A0319E90ACD29A0
:10045000F101E901E801E701E601200008002200BE
:100460008F1064302300C80020007E2022000F156A
:1004700064302300C80020007E2022008F116430E9
:100480002300C80020007E20080022008F153C3089
:100490002300C80020007E2022008F113C30230062
:1004A000C80020007E20080022008F15B4302300F1
:1004B000C80020007E2022008F113C302300C8009D
:1004C00020007E20080022008F11B4302300C800D5
:1004D00020007E2008004522542254225422632208
:1004E0000800542254224522632208005422452247
:1004F00045224522452263220800542245225422E7
:1005000054226322080045225422452245226322B8
:100510000800542245224522452263220800452234
:100520004522632208004522542245226322080006
:1005300054224522452263220800452245224522B5
:100540006322080045224522452254225422632278
:10055000080023005D08083C0319B22ADE00DC0D08
:10056000DE0BAF2A21000F178F130F1222000F127C
:1005700023005D08DE00DC1BC02A22008F1323004D
:10058000DC1FC52A22008F172300DC0D22000F1666
:10059000F80D20000F1F78100F1B781422000F1287
:1005A0002300DE0BBB2A200008002300DE01DF0150
:1005B000E001F801F901FA015308D400DF01E0017C
:1005C000F801F901FA015208D500E001F801F9013A
:1005D000FA015108D600F801F901FA015008D700D4
:1005E00022008F120230F700F70BF42A00001330BC
:1005F0002300DC000830DD002000A922230054087D
:10060000DC000830DD002000A92223005508DC00B2
:100610000830DD002000A92223005608DC00083045
:10062000DD002000A92223005708DC000830DD008F
:100630002000A92201302300DC000830DD0020006A
:10064000A92278082300D80022008F16230058081A
:10065000F800200008002300A0080319332B20080D
:10066000303C031D3C2B200054225422542254229F
:1006700054226322E42C2300200B3F2B432B200821
:10068000313C031D4C2B200045225422542254227D
:1006900054226322E42C23002008023C0319542B2B
:1006A0002008323C031D5D2B2000452245225422A8
:1006B000542254226322E42C23002008033C031913
:1006C000652B2008333C031D692B2000A222E42C5B
:1006D00023002008043C0319712B2008343C031D1F
:1006E0007A2B2000452245224522452254226322AE
:1006F000E42C23002008053C0319822B2008353CFC
:10070000031D8B2B200045224522452245224522F0
:100710006322E42C23002008063C0319932B2008B5
:10072000363C031D972B20007622E42C2300200862
:10073000073C03199F2B2008373C031DA82B2000E2
:10074000542254224522452245226322E42C2300D0
:100750002008083C0319B02B2008383C031DB92B96
:100760002000542254225422452245226322E42CA4
:1007700023002008093C0319C12B2008393C031D24
:10078000CA2B200054225422542254224522632290
:10079000E42C230020080A3C0319D22B2008613CDA
:1007A000031DD82B2000452254226322E42C230071
:1007B00020080B3C0319E02B2008623C031DE42BAE
:1007C00020008922E42C230020080C3C0319EC2B88
:1007D0002008633C031DF42B2000542245225422A0
:1007E00045226322E42C230020080D3C0319FC2B36
:1007F0002008643C031D002C20009822E42C2300D8
:1008000020080E3C0319082C2008653C031D0D2C04
:10081000200045226322E42C230020080F3C03190A
:10082000152C2008663C031D1D2C20004522452266
:10083000542245226322E42C23002008673C031D38
:10084000252C20007122E42C23002008683C031D85
:10085000312C200045224522452245226322E42CEA
:1008600023002008693C031D392C20008F22E42C32
:10087000230020086A3C031D412C20006B22E42C3D
:10088000230020086B3C031D4C2C200054224522E1
:1008900054226322E42C230020086C3C031D542CBA
:1008A00020008322E42C230020086D3C031D5E2CD5
:1008B0002000542254226322E42C230020086E3CA2
:1008C000031D682C2000542245226322E42C2300BF
:1008D00020086F3C031D732C200054225422542204
:1008E0006322E42C23002008703C031D7F2C200091
:1008F00045225422542245226322E42C230020085E
:10090000713C031D8B2C200054225422452254227A
:100910006322E42C23002008723C031D932C20004A
:100920009322E42C23002008733C031D9B2C200001
:100930009D22E42C23002008743C031DA42C2000DD
:1009400054226322E42C23002008753C031DAF2CA5
:1009500020004522452254226322E42C2300200853
:10096000763C031DBB2C2000452245224522542203
:100970006322E42C23002008773C031DC62C2000B2
:100980004522542254226322E42C23002008783C80
:10099000031DD22C200054224522452254226322DA
:1009A000E42C23002008793C031DDA2C20007D2252
:1009B000E42C230020087A3C031DE52C200054225F
:1009C00054224522452263222300200008000430DF
:1009D0002200EE00FA302300C80020007E20220012
:1009E000EE0BEA2C20006B22712276227D228322DC
:1009F000712202302200EE00FA302300C8002000ED
:100A00007E202200EE0BFC2C200089228F229322D4
:100A100098229D22A22202302200EE00FA3023000A
:100A2000C80020007E202200EE0B0E2D2300D301F3
:100A3000D201D101D0012000D522780F632D73306F
:100A40002300A00020002B236C302300A0002000F6
:100A50002B23270E2200EE00EF010F30EE05EE05EE
:100A6000EF016E082300A00020002B23270822009E
:100A7000EE00EF010F30EE05EF016E082300A0003D
:100A800020002B23270C2200EF002000260C220040
:100A9000EE00EF0CEE0CEF0CEE0CEF0CEE0C0F304A
:100AA000EF05EE05EF016E082300A00020002B23C8
:100AB00026080F392200EE00EF016E082300A00087
:100AC00020002B23BD2D2300D301D201D101013001
:100AD000D0002000D52278082200EE002300A000DC
:100AE00020002B232300D301D201D1010230D000FA
:100AF0002000D52278082200EE002300A00020006C
:100B00002B232300D301D201D1010330D0002000D8
:100B1000D52278082200EE002300A00020002B231D
:100B20002300D301D201D1010430D0002000D5220E
:100B300078082200EE002300A00020002B232300D1
:100B4000D301D201D1010530D0002000D522780890
:100B50002200EE002300A00020002B232300D3015D
:100B6000D201D1010630D0002000D5227808220021
:100B7000EE002300A00020002B2302302200EE0014
:100B8000FA302300C80020007E202200EE0BC02D8A
:100B90004F08503C031DFE2D5008F039F700770E2A
:100BA000F2000F30F20550080F39F3005108F03908
:100BB000F700770EF4000F30F40551080F39F500F7
:100BC0005208F039F700770EF6000F30F60552089C
:100BD0000F39FB005308F039F700770EFC000F3097
:100BE000FC0553080F39FD005408F039F700770E63
:100BF000FE000F30FE0554080F39EA00720823008A
:100C0000A00020002B2373082300A00020002B232A
:100C100074082300A00020002B2375082300A000E7
:100C200020002B2376082300A00020002B237B0824
:100C30002300A00020002B237C082300A00020001C
:100C40002B237D082300A00020002B237E082300F7
:100C5000A00020002B2322006A082300A00020000F
:100C60002B2308002300A80128080D3C031C422E5A
:100C7000113028078400203085000318850A800180
:100C8000A80A342E2000BF0108002F22E724942058
:100C900032269831AD2822008F124230F700F70B30
:100CA0004F2E000006302300DC000830DD0020005D
:100CB000A92222008F16200008002300C501C601CA
:100CC000C701F801F901FA013B08BC00C601C701E0
:100CD000F801F901FA013A08BD00C701F801F9016C
:100CE000FA013908BE00F801F901FA013808BF001D
:100CF00020004B2622008F120230F700F70B7E2EC9
:100D00000000DC302300DC000830DD002000A922D8
:100D100023003C08DC000830DD002000A92223006D
:100D20003D08DC000830DD002000A92223003E0839
:100D3000DC000830DD002000A92223003F08DC0091
:100D40000830DD002000A9220230F700F70BA62EA4
:100D5000000022008F160C302300C300FA30C800B8
:100D600020007E202300C30BAE2E200008002400AC
:100D7000110823005C0824009100140C031CBD2EF4
:100D80001108F700200008002300DE01DF01E00168
:100D9000F801F901FA015308D400DF01E001F8017C
:100DA000F901FA015208D500E001F801F901FA0150
:100DB0005108D600F801F901FA015008D7002200C5
:100DC0000E110230F700F70BE32E00001330230062
:100DD000DC002000B72623005408DC002000B726E2
:100DE00023005508DC002000B72623005608DC004D
:100DF0002000B72623005708DC002000B726023069
:100E00002300DC002000B72677082300D80022004A
:100E10000E1523005808F800200008002300CA011E
:100E2000CB01CC01F801F901FA014008C200CB0165
:100E3000CC01F801F901FA013F08C300CC01F80127
:100E4000F901FA013E08C400F801F901FA013D0870
:100E5000C50020004B2622008F120230F700F70B4E
:100E60002F2F000012302300DC000830DD002000AE
:100E7000A92223004208DC000830DD002000A9225E
:100E800023004308DC000830DD002000A9222300F5
:100E90004408DC000830DD002000A92223004508BA
:100EA000DC000830DD002000A92223004108DC001E
:100EB0000830DD002000A92222008F162000080043
:100EC00023002B08BB002A08BA002908B90028080B
:100ED000B80020005D262300B301B201B101B001CA
:100EE00033082F02031CC02F031D862F32082E0249
:100EF000031CC02F031D862F31082D02031CC02F99
:100F0000031D862F2C0830020318C02F3008280735
:100F1000B8003108293DB90032082A3DBA0033082B
:100F20002B3DBB0030082807BC003108293DBD001F
:100F300032082A3DBE0033082B3DBF00D3003E08D7
:100F4000D2003D08D1003C08D0002000C42678081B
:100F50002300BC003B08C0003A08BF003908BE00AF
:100F60003808BD003C08C10020000E2701302300D6
:100F7000B0070318B10A0319B20A0319B30A702F94
:100F80002000080022008F1464302300C8002000D5
:100F90007E2022000F1164302300C80020007E2034
:100FA00022008F1164302300C80020007E2008003A
:100FB000111ED82F23009A00200008002300A5014D
:100FC0002508103C031CEE2F20302507840020301C
:100FD00085000318850A8001A50AE02F200008007B
:1010000020302300E000DC01DD01DE01DF015308B8
:10101000FA005208F9005108F8005008F7000310D0
:10102000771C20285408DC0755080318550FDD07E6
:1010300056080318560FDE0757080318570FDF0727
:10104000DF0CDE0CDD0CDC0CFA0CF90CF80CF70CE8
:10105000E00B0F28200008002300CE01CD01FF3057
:10106000CC00CB00D201D1018430D0000830CF00B9
:10107000DB01DA01D901D801DB08031DCE28DA082B
:10108000031DCE28D908031DCE284A08580203188C
:10109000CE282C305807F8002130593DFA00780846
:1010A0002500A4007A08A5002300480858078400FA
:1010B0004908593D850000082500A600250885003F
:1010C00024088400260880002300D701D601D5011A
:1010D000D401D708031DC528D608031DC528D50887
:1010E000031DC5285408073C031CC5282C3058078D
:1010F00084002130593D850000084B062500A400DE
:1011000023004C082500A50023004D082500A6005B
:1011100023004E082500A700240801392300D3002E
:101120000310CE0CCD0CCC0CCB0C530B9F284F08CE
:10113000CB065008CC065108CD065208CE062C30FE
:101140005807F8002130593DFA0078082500A4001E
:101150007A08A5002C302300580784002130593D1F
:1011600085000310000C2500A60025088500240832
:1011700084002608800001302300D4070318D50A14
:101180000319D60A0319D70A69280130D8070318AA
:10119000D90A0319DA0A0319DB0A3C28FF30CB0607
:1011A000CC064B08F8004C08F9002000080023008A
:1011B000B008031D0C29B108031D0C29B208031D3A
:1011C0000C29B308031D0C2983102F08CB002E080F
:1011D000CA002D08C9002C08C800CF01CE01CD01DE
:1011E0005130CC0080312000C62088317A0823009D
:1011F000CB007908CA007808C9007708C800013018
:101200004807B5000030493DB60000304A3DB70000
:1012100000304B3DB8002029AC08031D2029AD0843
:10122000031D2029AE08031D2029AF08031D202916
:101230003308B8003208B7003108B6003008B500EE
:10124000BC01BB01BA010130B9003C083802031CE3
:10125000A12A031D3B293B083702031CA12A031DB9
:101260003B293A083602031CA12A031D3B293908F1
:101270003502031CA12A4A302100A1004730A200F8
:101280003630A3005930A4004230A5005730A600E4
:101290003030A7004A30A8004730A9003630AA00F5
:1012A0005930AB004C30AC004730AD003030AE00B0
:1012B0003E30AF00F030B000FF30B100F030B2008F
:1012C000FF30B30023003B082100B40023003A089C
:1012D0002100B500230039082100B6002300340B9B
:1012E000EA29C001BF01BE011630BD00C008031DC0
:1012F000EA29BF08031DEA29BE08031DEA293D08A3
:10130000663C031CEA2951303D07C80020303E3DB1
:10131000C90001303902F70000303A3BF8000030D4
:101320003B3BF90000303C3BFA00CD007908CC0093
:101330007808CB007708CA000508CF000408CE0063
:10134000D301D201D1015130D0004D08D7004C0853
:10135000D6004B08D5004A08D40020000020230006
:101360004F0885004E08840077082807CA007808CF
:10137000293DCB0079082A3DCC007A082B3DCD00D1
:101380003D08CA073E08CB3D3F08CC3D4008CD3D57
:101390001630CA020030CB3BCC3BCD3B4D08D300CE
:1013A0004C08D2004B08D1004A08D0008031200000
:1013B000D522883123004908850048088400780830
:1013C00080000130BD070318BE0A0319BF0A0319C4
:1013D000C00A7629B408031D662AC401C301C201EC
:1013E0001630C100C408031D662AC308031D662AFF
:1013F000C208031D662A4108663C031C662A513058
:101400004107C8002030423DC90001303902F700D1
:1014100000303A3BF80000303B3BF90000303C3BE9
:10142000FA00CD007908CC007808CB007708CA0014
:101430000508CF000408CE00D301D201D1015130FC
:10144000D0004D08D7004C08D6004B08D5004A08FC
:10145000D4002000002023004F0885004E0884009F
:1014600077082807CA007808293DCB0079082A3D6B
:10147000CC007A082B3DCD004108CA074208CB3D7D
:101480004308CC3D4408CD3D1630CA020030CB3B6A
:10149000CC3BCD3B4D08D3004C08D2004B08D100CB
:1014A0004A08D00080312000C42688312300490832
:1014B000850048088400780880000130C1070318BF
:1014C000C20A0319C30A0319C40AF2292030C90049
:1014D0005130C8006730CA0020002C207908230052
:1014E000C6007808C50045082200B8002300460859
:1014F0002200B9002300C7014708683C031C912A59
:10150000513047078400203085000318850A000801
:10151000C800480880312000D82788312300C70A36
:101520007C2ADC30C800803120007E2088310130E8
:101530002300B9070318BA0A0319BB0A0319BC0A26
:101540002529200008004008423C031DCE2A220025
:10155000EE016E080D3C031CC92A11306E072300F2
:10156000A5002030A6000318A60A203022006E072E
:101570008400203085000318850A00082300A70096
:101580002608850025088400270880002200EE0A2E
:10159000A92A2000A4018031DE2788314108423C7D
:1015A000031DFA2A2200EF016F080D3C031CF52AE7
:1015B00011306F072300A5002030A6000318A60AEB
:1015C000013022006F07203E840020308500031880
:1015D000850A00082300A700260885002508840046
:1015E000270880002200EF0AD42A2000A4018031BD
:1015F000DE2788314208423C031D222B2300A00134
:1016000020080D3C031C1D2B11302007A5002030A5
:10161000A6000318A60A02302007203E84002030CE
:1016200085000318850A0008A700260885002508FC
:10163000840027088000A00A002B2000A40180312C
:10164000DE2788314308423C031D4A2B2300A101B9
:1016500021080D3C031C452B11302107A50020302B
:10166000A6000318A60A03302107203E840020307C
:1016700085000318850A0008A700260885002508AC
:10168000840027088000A10A282B2000A4018031B3
:10169000DE2788314408423C031D722B2300A2013F
:1016A00022080D3C031C6D2B11302207A5002030B1
:1016B000A6000318A60A04302207203E840020302A
:1016C00085000318850A0008A7002608850025085C
:1016D000840027088000A20A502B2000A40180313A
:1016E000DE27883120302300C9001130C8000C30BB
:1016F000CA0020002C2079082200BB007808BA001C
:1017000020003E082200BD0020003D082200BC0051
:1017100020003208F000983181294A30D10047304A
:10172000D2003630D3005930D4004230D500573083
:10173000D6003030D7004A30D8004730D900363094
:10174000DA005930DB004C30DC004730DD0030304F
:10175000DE003E30DF00F030E000AA30E100033070
:10176000E2003208E3003308E4003408E5003508FD
:10177000E6003608E7003708E8003808E9003908CD
:10178000EA003A08EB003B08EC003C08ED00AA3008
:10179000EE0020302300C9003130C8001E30CA00DE
:1017A00020002C2079082300A9007808A800280828
:1017B0002000EF00230029082100A0008F10220044
:1017C0008F1408302300AB00FA30C80080312000AD
:1017D0007E2088312300AB0BE42BAA012A081F3C92
:1017E000031C032C31302A078400203085000318A5
:1017F000850A0008AB002B0880312000D8278831EB
:101800002300AA0AEE2B0230AB00FA30C800803168
:1018100020007E2088312300AB0B052C21008F1087
:1018200022008F10200008008D232200EE016E0898
:101830001D3C031C2A2C5030EF00FA302300C80056
:10184000803120007E2088312200EF0B1D2C6400A7
:10185000EE0A172C803120003226883198319029E9
:101860004A30D1004730D2003630D3005930D4004E
:101870004230D5005730D6003030D7004A30D8003B
:101880004730D9003630DA005930DB004C30DC000C
:101890004730DD003030DE003E30DF00F030E00069
:1018A000AA30E1000330E2003208E3003308E4002C
:1018B0006930E500E600E700E800E900EA00EB0037
:1018C000EC00ED00AA30EE0020302300C9003130DA
:1018D000C8001E30CA0020002C2079082300A70071
:1018E0007808A60026082000EF0023002708210022
:1018F000A0008F1022008F1408302300A900FA30B6
:10190000C800803120007E2088312300A90B7F2C65
:10191000A80128081F3C031C9E2C31302807840096
:10192000203085000318850A0008A90029088031A5
:101930002000D82788312300A80A892C0230A9006A
:10194000FA30C800803120007E2088312300A90BA6
:10195000A02C21008F1022008F10200008003C08CE
:101960002200EE006E08783C031CCF2C20008D2353
:101970002200EF016E086F020318CE2C14302300F2
:10198000A000FA30C800803120007E20883123007A
:10199000A00BC12C64002200EF0ABA2CD22C20002C
:1019A0003024220080312000322688319831A92944
:1019B0003408103C0319E02C3408113C031D612D40
:1019C00035082300A300200036082300A2002000D1
:1019D00037082300A100200038082300A0002000C1
:1019E00039082300A70020003A082300A6002000A1
:1019F0003B082300A50020003C082300A400803100
:101A00002000C227883104302200EE00FA30230083
:101A1000C800803120007E2088312200EE0B062D88
:101A200020003408103C031D312D23002308AB0097
:101A30002208AA002108A9002008A800AF01AE01D1
:101A4000AD01AC012708B3002608B2002508B1009B
:101A50002408B0000130B4002000D72080313226A5
:101A600088313408113C031D502D23002308AB009E
:101A70002208AA002108A9002008A800AF01AE0191
:101A8000AD01AC012708B3002608B2002508B1005B
:101A90002408B000B4012000D720803132268831DC
:101AA00002302200EE00FA302300C800803120000E
:101AB0007E2088312200EE0B532D803120009420AF
:101AC00088319831AC293408133C03196B2D340844
:101AD000143C031DEC2D35082300A300200036081C
:101AE0002300A200200037082300A10020003808AE
:101AF0002300A000200039082300A70020003A0896
:101B00002300A60020003B082300A50020003C087D
:101B10002300A40080312000C22788310430220035
:101B2000EE00FA302300C800803120007E2088318A
:101B30002200EE0B912D20003408133C031DBC2D18
:101B400023002308AB002208AA002108A9002008CE
:101B5000A8002708AF002608AE002508AD0024081D
:101B6000AC00B301B201B101B0010130B4002000FA
:101B7000D7208031322688313408143C031DDB2DF8
:101B800023002308AB002208AA002108A90020088E
:101B9000A8002708AF002608AE002508AD002408DD
:101BA000AC00B301B201B101B001B4012000D720F3
:101BB00080313226883102302200EE00FA302300D4
:101BC000C800803120007E2088312200EE0BDE2DFF
:101BD00080312000942088319831AF2935082300C6
:101BE000A300200036082300A200200037082300AD
:101BF000A100200038082300A0002000390823009D
:101C0000A70020003A082300A60020003B0823007C
:101C1000A50020003C082300A4004A302100A100B8
:101C20004730A2003630A3005930A4004230A5004E
:101C30005730A6003030A7004A30A8004730A9002E
:101C40003630AA005930AB004C30AC004730AD0004
:101C50003030AE003E30AF00F030B000FF30B100A9
:101C6000F030B200FF30B300230026082100B4009A
:101C7000230025082100B500230024082100B60018
:101C800022006E0BC22E2300AB01AA01A90116305F
:101C9000A800AB08031DC12EAA08031DC12EA90868
:101CA000031DC12E2808663C031CC12E5130280795
:101CB000F8002030293DFA007808B8007A08B90009
:101CC00001302402F7000030253BF8000030263BAD
:101CD000F9000030273BFA00BD007908BC00780805
:101CE000BB007708BA000508BF000408BE00D30196
:101CF000D201D1015130D0003D08D7003C08D600B8
:101D00003B08D5003A08D4002000002023003F08FB
:101D100085003E08840077082007BA007808213D36
:101D2000BB007908223DBC007A08233DBD0028088D
:101D3000BA072908BB3D2A08BC3D2B08BD3D16301B
:101D4000BA020030BB3BBC3BBD3B3D08D3003C0866
:101D5000D2003B08D1003A08D00080312000D522C3
:101D6000883123003908850038088400780880000D
:101D70000130A8070318A90A0319AA0A0319AB0A14
:101D8000492E2200EE08031D442F2300AF01AE01AF
:101D9000AD011630AC00AF08031D432FAE08031D84
:101DA000432FAD08031D432F2C08663C031C432F13
:101DB00051302C07F80020302D3DFA007808B8008B
:101DC0007A08B90001302402F7000030253BF80002
:101DD0000030263BF9000030273BFA00BD007908AF
:101DE000BC007808BB007708BA000508BF000408EB
:101DF000BE00D301D201D1015130D0003D08D7003F
:101E00003C08D6003B08D5003A08D400200000204A
:101E100023003F0885003E08840077082007BA00A9
:101E20007808213DBB007908223DBC007A08233D9B
:101E3000BD002C08BA072D08BB3D2E08BC3D2F085D
:101E4000BD3D1630BA020030BB3BBC3BBD3B3D083C
:101E5000D3003C08D2003B08D1003A08D0008031C2
:101E60002000C42688312300390885003808840002
:101E7000780880000130AC070318AD0A0319AE0AD8
:101E80000319AF0ACB2E220020302300C9005130A5
:101E9000C8006730CA0020002C2079082300B10058
:101EA0007808B00030082200B80023003108220072
:101EB000B900EF016F08683C031C702F51306F07A9
:101EC0008400203085000318850A00082300B8002C
:101ED000380880312000D82788312200EF0A5A2F95
:101EE000C8302300C800803120007E2088310800DF
:101EF0003408153C0319802F3408163C031DB92FF4
:101F00008031C227883104302200EE00FA302300ED
:101F1000C800803120007E2088312200EE0B862F01
:101F200020003408153C031D9D2F01302200EE00D7
:101F30002000EE258031322688313408163C031DFE
:101F4000A82F2200EE012000EE25803132268831B4
:101F500002302200EE00FA302300C8008031200059
:101F60007E2088312200EE0BAB2F803120009420A0
:101F700088319831B2293408173C031DFA2F8D237C
:101F800035082300A300200036082300A20020000B
:101F900037082300A100200038082300A0002000FB
:101FA00039082300A70020003A082300A6002000DB
:101FB0003B082300A50020003C082300A4002308C0
:101FC000AB002208AA002108A9002008A8002708C1
:101FD000AF002608AE002508AD002408AC00803113
:101FE0002000602788318D2380313226883180316E
:081FF000942088319831C429C6
:102000003408353C031D7A2835082300A30020003E
:1020100036082300A200200037082300A10020007A
:1020200038082300A00020003B082200EF00200019
:102030003C082200EE0002302300A60020003908F0
:102040002300A700803120004E2190318031CC2127
:10205000903108302300A400FA30C80080312000FD
:102060007E2090312300A40B2C2822005A08663CC5
:10207000031D762880312000C227903104302300D0
:10208000A400FA30C800803120007E209031230067
:10209000A40B41282308AB002208AA002108A900AC
:1020A0002008A800AF01AE01AD01AC01B301B2013F
:1020B00022006F082300B10022006E082300B00048
:1020C000B40188312000D720903102302300A400D1
:1020D000FA30C800803120007E2090312300A40B0C
:1020E0006828803120009420903122008031200027
:1020F000322690319831B529013023002902C800D9
:102100002808C9004808CA00F701F8014908031067
:102110004A18F707F70CF80CCA18F707F70CF80C71
:102120004A19F707F70CF80CCA19F707F70CF80C5F
:102130004A1AF707F70CF80CCA1AF707F70CF80C4D
:102140004A1BF707F70CF80CCA1BF707F70CF80C3B
:10215000AE01AD01AC017808AB00D301D201D101D1
:102160005130D0002E08D7002D08D6002C08D500FD
:102170002B08D400883120000020903177082300FC
:102180002407AF007808253DB0007908263DB1004E
:102190007A08273DB200B601B501B4010130B300A1
:1021A000B608031D522AB508031D522AB408031DA0
:1021B000522A33082802031C522A4A302100A10067
:1021C0004730A2003630A3005930A4004230A500A9
:1021D0005730A6003030A7004A30A8004730A90089
:1021E0003630AA005930AB004C30AC004730AD005F
:1021F0003030AE003E30AF00F030B000FF30B10004
:10220000F030B200FF30B300230035082100B400E5
:10221000230034082100B500230033082100B60054
:1022200023002A0B9329BA01B901B8011630B7006F
:10223000BA08031D9229B908031D9229B808031D85
:1022400092293708663C031C922951303707F80061
:102250002030383DFA007808C8007A08C9000130FB
:102260003302F7000030343BF8000030353BF90012
:102270000030363BFA00CD007908CC007808CB005E
:102280007708CA000508CF000408CE00D301D201A8
:10229000D1015130D0004D08D7004C08D6004B0872
:1022A000D5004A08D4008831200000209031230056
:1022B0004F0885004E08840077082F07CA00780869
:1022C000303DCB007908313DCC007A08323DCD005D
:1022D0003708CA073808CB3D3908CC3D3A08CD3D10
:1022E0001630CA020030CB3BCC3BCD3B4D08D3006F
:1022F0004C08D2004B08D1004A08D00080312000A1
:10230000D5229031230049088500480884007808C8
:1023100080000130B7070318B80A0319B90A031976
:10232000BA0A1829152AAA08031D152ABE01BD01DB
:10233000BC011630BB00BE08031D152ABD08031DD5
:10234000152ABC08031D152A3B08663C031C152AE8
:1023500051303B07F80020303C3DFA007808C800B7
:102360007A08C90001303302F7000030343BF8002E
:102370000030353BF9000030363BFA00CD007908DB
:10238000CC007808CB007708CA000508CF00040805
:10239000CE00D301D201D1015130D0004D08D70079
:1023A0004C08D6004B08D5004A08D40088312000DC
:1023B0000020903123004F0885004E0884007708E4
:1023C0002F07CA007808303DCB007908313DCC009A
:1023D0007A08323DCD003B08CA073C08CB3D3D089A
:1023E000CC3D3E08CD3D1630CA020030CB3BCC3B45
:1023F000CD3B4D08D3004C08D2004B08D1004A0811
:10240000D00080312000C426903123004908850087
:1024100048088400780880000130BB070318BC0A14
:102420000319BD0A0319BE0A9B292030C900513087
:10243000C8006730CA00883120002C20903179080C
:102440002300C0007808BF003F082200B800230026
:1024500040082200B9002300C1014108683C031C68
:10246000422A513041078400203085000318850A34
:102470000008C800480880312000D8279031230088
:10248000C10A2D2AC830C800803120007E2090313A
:1024900001302300B3070318B40A0319B50A03195E
:1024A000B60AD028200008003408443C031DA92A9D
:1024B00035082300A300200036082300A2002000D6
:1024C00037082300A100200038082300A0000230B4
:1024D000A600200039082300A700803120004E21EB
:1024E00090318031C227903104302200EE00FA3062
:1024F0002300C800803120007E2090312200EE0BA6
:10250000772A23002308A7002208A6002108A50097
:102510002008A40020003C082300A80020003B085D
:102520002300A900AA0120007C20803132269031AE
:1025300002302200EE00FA302300C8008031200073
:102540007E2090312200EE0B9B2A803120009420C7
:1025500090319831B8293408403C0319B32A340823
:10256000413C031D1D2B35082300A3002000360825
:102570002300A200200037082300A1002000380813
:102580002300A00080312000C227903104302200B7
:10259000EE00FA302300C800803120007E20903108
:1025A0002200EE0BC92A20003408403C031DF12A0A
:1025B00023002308A7002208A6002108A500200860
:1025C000A40020003C082300A80020003B082300B2
:1025D000A9000130AA0020007C20803132269031F1
:1025E0000C2B3408413C031D0C2B23002308A700AF
:1025F0002208A6002108A5002008A40020003C080D
:102600002300A80020003B082300A900AA01200005
:102610007C2080313226903102302200EE00FA30E8
:102620002300C800803120007E2090312200EE0B74
:102630000F2B80312000942090319831BB29340831
:10264000303C031D082C4A30D1004730D2003630D0
:10265000D3005930D4004230D5005730D600303046
:10266000D7004A30D8004730D9003630DA00593028
:10267000DB004C30DC004730DD003030DE003E3027
:10268000DF00F030E000AA30E1000330E200320861
:10269000E3003308E4001430F80021001D088339FA
:1026A00078049D000F30F8001F08F03978049F006F
:1026B0000D30F700F70B5A2B9D149D185D2B1C084D
:1026C000FA001B08F8001C08F90079082200EF0046
:1026D0007808EE002300A301A201A101A001A4013A
:1026E0002408633C031C862B80312000AA209031F3
:1026F00078082300A0077908A13D0030A23DA33D42
:102700008530F700F70B822BA40A702B8310230867
:10271000CB002208CA002108C9002008C800CF0148
:10272000CE01CD016430CC0080312000C620903134
:1027300078082300A6007708A50020003408E500EB
:10274000DD30E600230026082000E70023002508EE
:102750002000E800DD30E900EA0022006F082000D8
:10276000EB0022006E082000EC00DD30ED00AA3006
:10277000EE0020302300C9003130C8001E30CA00EE
:10278000883120002C20903179082300A800780897
:10279000A70027082000EF00230028082100A00040
:1027A0008F1022008F1408302300AA00FA30C800CE
:1027B000803120007E2090312300AA0BD62BA90166
:1027C00029081F3C031CF52B3130290784002030D9
:1027D00085000318850A0008AA002A088031200015
:1027E000D82790312300A90AE02B0230AA00FA3042
:1027F000C800803120007E2090312300AA0BF72BE7
:1028000021008F1022008F1080312000322690315D
:102810009831BE293408273C031DD02C35082300ED
:10282000A300200036082300A20020003708230060
:10283000A100200038082300A00020003B0822004F
:10284000EF0020003C082200EE0002302300A6002A
:10285000200039082300A700803120004E2190314C
:102860008031CC21903122005A08663C031DA92CEE
:102870006F082300A70022006E082300A600A9010C
:102880005130A8001030AA00F701FA01A70CA60CDD
:10289000031C502C2808F7070318FA0A2908FA071E
:1028A000FA0CF70CF90CF80CAA0B462C7908A500C9
:1028B0007808A4002308AB002208AA002108A90078
:1028C0002008A800AF01AE012508AD002408AC0027
:1028D00080312000602790318031C2279031043050
:1028E0002300A400FA30C800803120007E209031FF
:1028F0002300A40B722C2308AB002208AA00210895
:10290000A9002008A800AF01AE01AD01AC01B301E0
:10291000B20122006F082300B10022006E082300DC
:10292000B0000130B40088312000D720903102304F
:102930002300A400FA30C800803120007E209031AE
:102940002300A40B9A2C8031200094209031CD2CB0
:10295000220080312000C227903104302300A400DF
:10296000FA30C800803120007E2090312300A40B73
:10297000B02C883120003024903102302300A40094
:10298000FA30C800803120007E2090312300A40B53
:10299000C02C80312000942090318031322690313B
:1029A0009831C1293408223C031D362D35082300F7
:1029B000A300200036082300A200200037082300CF
:1029C000A100200038082300A00020003B082200BE
:1029D000EF0020003C082200EE0002302300A60099
:1029E000200039082300A700803120004E219031BB
:1029F0008031CC21903122005A08663C031D2C2DD9
:102A0000883120008D23903104302300A400FA3057
:102A1000C800803120007E2090312300A40B072DB8
:102A200022006E082300A500A4012308AB002208A1
:102A3000AA002108A9002008A800AF01AE012508BE
:102A4000AD002408AC00803120006027903188312F
:102A50008D239031302D2200883120003024903198
:102A60008031322690318031942090319831C729BD
:102A70003408423C031D6B2D3C0B3F2D472D3C0879
:102A8000053C0319472D3C080A3C031D6B2D023001
:102A90002300A60020003C082300A700803120006E
:102AA0004E2190318031CC21903122005A08663C71
:102AB000031D5F2D883120008D2390312200DA081C
:102AC000031D672D88312000302490312200803191
:102AD0002000322690319831CA293408A03C031DC9
:102AE000912D2300A601A701803120004E219031B5
:102AF0008031CC21903122005A08663C031D852D7F
:102B0000883120008D2390312200DA08031D8D2D9D
:102B1000883120003024903122008031200032267C
:102B200090319831CD293408213C031DB12D8031DD
:102B30002F2290318031E724903102302200EE00C4
:102B4000FA302300C800803120007E20903122001E
:102B5000EE0BA02D80312000942090318031322660
:102B600090319831D0293408203C031D272E2300B2
:102B7000BB01BA01B901B801803120005D26903156
:102B80002300C001BF01BE01BD0120003B0823009E
:102B9000C100803120000E2790312300C001BF0109
:102BA000BE010130BD00200035082300C100803186
:102BB00020000E2790312300C001BF01BE0102306A
:102BC000BD00200036082300C100803120000E2700
:102BD00090312300C001BF01BE010330BD002000C1
:102BE00037082300C100803120000E2790312300D8
:102BF000C001BF01BE010430BD0020003808230021
:102C0000C100803120000E2790312300C001BF0198
:102C1000BE010530BD00200039082300C10080310D
:102C200020000E2790312300C001BF01BE010630F5
:102C3000BD0020003A082300C100803120000E278B
:102C4000903188318D239031803132269031983106
:022C5000D32986
:10300000A40123009F1522309B0000309C00A630B5
:103010009E0090309D0021008D1122008D15210011
:103020008D1022008D1421000F178F130F12220014
:103030000F122400951240309400093092002A307B
:10304000950022009D129D111D1221008E120E1658
:103050008E112000B001BF01F1012200E901E80159
:10306000E701E601F201F301F401F501F601FB01CC
:10307000FC01FD01FE01EA010130EB00EC0123003F
:103080008C018D018E018F0190012200920191012E
:103090005B280E34403431340034013401343E3482
:1030A000AA340E34C034003401348034BB341834B4
:1030B000C03400340034183085004930840085174E
:1030C0001200F700003A031975281200F800F81BE7
:1030D0006D280F39870012008600781B1200781FB8
:1030E00012001E00F70B6F28602880312000522844
:1030F000983125302100970014302200EE00FA307C
:103100002300C800803120007E2098312200EE0B81
:103110007F287830EE00FA302300C800803120008C
:103120007E2098312200EE0B8B28803120009420E5
:1031300098318031152998317908A7007808A600C0
:1031400001302300A600A701803120004E219831D4
:103150008031CC2198318031452E98316400220095
:103160005C08773C031DBE28EC08031DBE287730A1
:103170002000B00001302200EB00EC00DC08031D51
:10318000CD282000B00101302200EB00EC0120002E
:10319000AB01AA01A901A801220020003008773C58
:1031A000031D742922006B0B30295D082000AB0041
:1031B00022005E082000AA0022005F082000A9006B
:1031C000220060082000A800220061082000AF0053
:1031D000220062082000AE00220063082000AD003B
:1031E000220064082000AC0002302300A600013059
:1031F000A700803120004E2198310C302200EE00D3
:10320000FA302300C800803120007E20983122004F
:10321000EE0B002920002B082300AB0020002A0819
:103220002300AA00200029082300A9002000280864
:103230002300A80020002F082300AF0020002E0844
:103240002300AE0020002D082300AD0020002C0834
:103250002300AC0080312000602798312200EB0170
:1032600080312000C227983104302200EE00FA306D
:103270002300C800803120007E2098312200EE0B10
:10328000372920002B082300AB0020002A08230048
:10329000AA00200029082300A900200028082300F4
:1032A000A800AF01AE01AD01AC01B301B201B101A3
:1032B0000530B0000130B40088312000D7209831AB
:1032C00002302200EE00FA302300C80080312000D6
:1032D0007E2098312200EE0B6329803120003226B7
:1032E0009831803194209831640080319420983155
:1032F0002200ED016D082C3C031CEA2988312000D6
:10330000A32A98317008CC3C03198A297008DD3C47
:10331000031D91293308903C031D91298831142CF9
:10332000983122003C083A02031DD5293D083B0292
:10333000031DD5297008AA3C0319A2297008BB3CBB
:10334000031DD52920003308AA3C031DAA29883172
:10335000AF2C98318831D82C98318831632D983131
:103360008831782F98319031002898319031542A43
:1033700098319031AB2A983190311F2B9831903190
:103380000A2C98318831BB2F98319031D22C98314A
:103390009031382D983190316D2D98319031932D99
:1033A00098319031B32D983122002000A401803152
:1033B0003226983108302200EE00FA302300C8008F
:1033C000803120007E2098312200EE0BDD29640040
:0A33D000ED0A7A2920009928630015
:020000040001F9
:04000E00BA39FF1EDE
:00000001FF
;PIC16F1789
;CRC=03A1  CREATED="10-Jun-21 18:29"
