:0600000088319E2800007B
:0800080083018031200077081C
:10001000A0007808A1007908A2007A08A3002300B4
:1000200011082000A400230012082000A5002300CE
:1000300013082000A600230014082000A7008B1E30
:1000400023280B194328850191308400001C2A289D
:10005000111845282008F7002108F8002208F900A7
:100060002308FA002408230091002000250823001B
:100070009200200026082300930020002708230078
:100080009400090020008031B6288031D4292A1537
:100090002A152A15D232F3327410E634F23974106C
:1000A000F23A6E1065376131EC3264152A152A1563
:1000B0002A152A158A0600002A152A152A15CE3770
:1000C000F2366136A0366F32651065376131EC3239
:1000D00064152A152A152A152A158A0600002A15DC
:1000E0002A152A15D330E632A0366F3265106537EF
:1000F0006131EC3264152A152A152A152A158A064B
:1001000000002A152A152A15D232F3327410ED3761
:10011000E432A0274E102A152A152A152A152A0579
:100120000D002A152A152A154F2346102A152A15BF
:100130002A152A152A050D002A152A152A154F27D2
:1001400020152A152A152A152A158A0600002A15AF
:100150002A152A15CD3069372029E539653A201549
:100160002A152A152A152A158A0600001508031DC6
:10017000C0280D150630F700F70BBC2800000D1144
:100180000B1180312A2821008D1322008D13083095
:10019000F800CA280000F817DD28F8132000EF0C3B
:1001A000220003188D17031C8D137817DD28781390
:1001B000F80BCE28DB2800008D1784308400840BD8
:1001C000DF280000F81BCD28781BD7282000080066
:1001D0000508EE000408ED00E71FF628ED176D1E78
:1001E000ED0AE609E709E60A0319E70A670EF0389F
:1001F000E900E907E23EEA00323EEC0067080F3909
:10020000EA07EA07EC07E93EEB00EB07EB07660EAF
:100210000F39EB07EC07EB0DEC0DEC09EC0D660864
:100220000F39EC07E90D0730E8000A30EC07EB0363
:10023000031C1629EB07EA03031C1A29EA07E90342
:10024000031C1E29E907E803031C222985016830E5
:10025000840007306D056D133F316D05031D37298F
:100260006D1A01316D1A37292030F700592984079A
:100270000030853D04086C3C031D412985080319A5
:100280006D170008F700031D4D296D1B4D296D1AD0
:100290006429ED194D2920305829ED1F55292D309D
:1002A000F70011006D13ED135929ED156D12303063
:1002B000F7070508E7000408E6007708EF00C32009
:1002C000670885006608840001316D1F3A2908001F
:1002D0006D08F8016C02031870296C08F7007C297E
:1002E000F7010830EE00EC0DF70D6D0877020318EA
:1002F000F700F80DEE0B732908002030671E303030
:10030000E8006608F700E61F8D29F709F70A770865
:10031000E6002D30E800E71767146608EC0064304B
:10032000ED0068217708E60030307807E9006608BC
:10033000EC000A30ED00682130307707EB003030F8
:100340007807EA006808F700303069020319AC2921
:10035000E714E71B6715C0296719C0296808E90079
:10036000E718B72930306A020319BA296714E71B66
:10037000E714C029031D6714031DC0296908EA009A
:100380006719C729E718CA296718CD29D02968082D
:10039000EF00C3206908EF00C3206A08EF00C32004
:1003A0006B08EF00C320080096018030970096018B
:1003B000BC0A0319BD0A2B083A3C031CE129AB0A0D
:1003C000E329AB01AC0A2C083C3C031DE929AC0134
:1003D000AD0A2D08183C031DF329AD01AE0A03191F
:1003E000AF0A0130BE000C3084002F08E7002E0851
:1003F000E600E8203A30EF00C3202D08E600013087
:10040000E7007D213A30EF00C3202C08E6000130E0
:10041000E7007D213A30EF00C3202B08E6000130D1
:10042000E7007D210D30EF00C3200A30EF00C3202C
:100430008030230091000230920003100A30200027
:10044000E6000B088B13230095171514000000001D
:10045000891B8B170318522A13087F392000E700E5
:10046000230011082000E800230012082000E90002
:100470006708EF00C3206808230091002000690886
:10048000230092000B088B13951715140000000031
:10049000891B8B172000E60B4E2A502A2300522A74
:1004A000702A2300130D140D7F392000E70023006C
:1004B00011082000E800230012082000E900670866
:1004C000EF00C32068082300910020006908230082
:1004D0009200910A0319920A03102000E60B212AC8
:1004E0000A3084003D08E7003C08E600E8200D30B3
:1004F000EF00C3200A30EF00C320111080312A28FA
:10050000ED306937E3377537741D25183436E40646
:100510000A002A152A152A152A152A152A152A1518
:100520002A152A152A152A152A152A152A152A15D3
:100530002A152A152A152A152A152A152A152A15C3
:100540002A152A152A152A152A152A050D002A15F5
:100550002A152A1520102010202AC8245310C92932
:100560002029C529452A2028C92120234D10D6221B
:10057000D229C9274E10D3175710201020102A1542
:100580002A152A152A152A050D002A152A152A15B5
:100590002A152A152A152A152A152A152A152A1563
:1005A0002A152A152A152A152A152A152A152A1553
:1005B0002A152A152A152A152A152A152A152A1543
:1005C0002A152A050D002A152A152A15D3326E324E
:1005D00069376710E430F430203A6F10ED30693736
:1005E00020152A152A152A152A158A0600012A150A
:1005F0002A152A15E430F430A039653774102A150D
:100600002A152A152A152A050D002A152A152A1534
:100610005537F23267104F2720152A152A152A154B
:100620002A158A0600012A152A152A155537F2328D
:1006300067104F2346102A152A152A152A152A0550
:100640000D002A152A152A15D232E332693B65328C
:10065000A031EF36ED306E3220336F39A039613A78
:100660006536EC34F4322039E539653A20152A151F
:100670002A152A152A158A0600002A152A152A1570
:10068000D232E332693B6532A030E335EE37EC32EB
:10069000E433E53665377410E6377210F330E6322E
:1006A000A0366F3265152A152A152A152A158A06CD
:1006B00000012A152A152A15D232E332693B653228
:1006C000A030E335EE37EC32E433E53665377410AD
:1006D000E6377210F232F33274152A152A152A15EC
:1006E0002A158A0600000B088B1323009517151492
:1006F00000000000891B8B1713087F390319C72BD3
:100700002000DC00230011082000DD002300120877
:100710002000DE00A8018B1BA8178B135C08EF00DC
:10072000C320A81B8B175D082300910020005E08E2
:10073000230092000B088B1395171514000000007E
:10074000891B8B17130D140D7F390319C72B20003C
:10075000DC00230011082000DD0023001208200027
:10076000DE00A8018B1BA8178B135C08EF00C320C9
:10077000A81B8B175D082300910020005E08230052
:100780009200910A0319920A2000732B2300200083
:10079000080005302300910095131514130820005C
:1007A000DC00083023009100951315141308200075
:1007B000DD005C08C3005D08C2000A302300910020
:1007C0009513151413082000DC000B302300910052
:1007D0009513151413082000DD005C08C5005D08A2
:1007E000C4000F3023009100951315141308200046
:1007F000DC0010302300910095131514130820001D
:10080000DD005C08C7005D08C600143023009100BD
:100810009513151413082000DC00153023009100F7
:100820009513151413082000DD005C08C9005D084D
:10083000C8001930230091009513151413082000E7
:10084000DC001A30230091009513151413082000C2
:10085000DD005C08CB005D08CA001E30230091005B
:100860009513151413082000DC001F30230091009D
:100870009513151413082000DD005C08CD005D08F9
:10088000CC00233023009100951315141308200089
:10089000DC00243023009100951315141308200068
:1008A000DD005C08CF005D08CE00283023009100F9
:1008B0009513151413082000DC0029302300910043
:1008C0009513151413082000DD005C08D1005D08A5
:1008D000D0002D302300910095131514130820002B
:1008E000DC002E302300910095131514130820000E
:1008F000DD005C08D3005D08D20032302300910097
:100900009513151413082000DC00333023009100E8
:100910009513151413082000DD005C08D5005D0850
:10092000D400883158292F08DC00DD01DD010B08D7
:10093000F7008B1305302300910020002F082300BF
:1009400093009513151555309600AA30960095140E
:100950009518A82C151177088B0420002E08DC00B0
:10096000DD010B08F7008B130830230091002000F5
:100970002E08230093009513151555309600AA30C4
:10098000960095149518C22C151177088B04200039
:100990002F08DC00DD01DD010B08F7008B130A30A6
:1009A0002300910020002F082300930095131515B4
:1009B00055309600AA30960095149518DD2C151127
:1009C00077088B0420002E08DC00DD010B08F700FF
:1009D0008B130B302300910020002E08230093007E
:1009E0009513151555309600AA3096009514951854
:1009F000F72C151177088B0420002F08DC00DD018F
:100A0000DD010B08F7008B130F302300910020004D
:100A10002F08230093009513151555309600AA3022
:100A2000960095149518122D151177088B04200047
:100A30002E08DC00DD010B08F7008B1310302300BB
:100A4000910020002E0823009300951315155530B2
:100A50009600AA309600951495182C2D151177083C
:100A60008B0420002F08DC00DD01DD010B08F700FE
:100A70008B1314302300910020002F0823009300D3
:100A80009513151555309600AA30960095149518B3
:100A9000472D151177088B0420002E08DC00DD019E
:100AA0000B08F7008B1315302300910020002E084F
:100AB000230093009513151555309600AA30960023
:100AC00095149518612D151177088B0420002F08B7
:100AD000DC00DD01DD010B08F7008B13193023006A
:100AE000910020002F082300930095131515553011
:100AF0009600AA309600951495187C2D151177084C
:100B00008B0420002E08DC00DD010B08F7008B139E
:100B10001A302300910020002E0823009300951323
:100B2000151555309600AA30960095149518962DF7
:100B3000151177088B0420002F08DC00DD01DD0192
:100B40000B08F7008B131E302300910020002F08A4
:100B5000230093009513151555309600AA30960082
:100B600095149518B12D151177088B0420002E08C7
:100B7000DC00DD010B08F7008B131F302300910010
:100B800020002E082300930095131515553096006C
:100B9000AA30960095149518CB2D151177088B0463
:100BA00020002F08DC00DD01DD010B08F7008B13AE
:100BB00023302300910020002F0823009300951379
:100BC000151555309600AA30960095149518E62D07
:100BD000151177088B0420002E08DC00DD010B08BE
:100BE000F7008B1324302300910020002E082300EF
:100BF00093009513151555309600AA30960095145C
:100C00009518002E151177088B0420002F08DC00A2
:100C1000DD01DD010B08F7008B1328302300910064
:100C200020002F08230093009513151555309600CA
:100C3000AA309600951495181B2E151177088B0471
:100C400020002E08DC00DD010B08F7008B13293093
:100C50002300910020002E08230093009513151502
:100C600055309600AA30960095149518352E15111A
:100C700077088B0420002F08DC00DD01DD010B0864
:100C8000F7008B132D302300910020002F08230044
:100C900093009513151555309600AA3096009514BB
:100CA0009518502E151177088B0420002E08DC00B3
:100CB000DD010B08F7008B132E302300910020007C
:100CC0002E08230093009513151555309600AA3071
:100CD0009600951495186A2E151177088B0420003C
:100CE0002F08DC00DD01DD010B08F7008B1332302B
:100CF0002300910020002F08230093009513151561
:100D000055309600AA30960095149518852E151129
:100D100077088B0420002E08DC00DD010B08F700AB
:100D20008B1333302300910020002E082300930002
:100D30009513151555309600AA3096009514951800
:100D40009F2E151177088B0420002F08DC00DD0191
:100D5000DD010B08F7008B13053023009100200004
:100D60002F08230093009513151555309600AA30CF
:100D7000960095149518BA2E151177088B0420004B
:100D80002E08DC00DD010B08F7008B130830230070
:100D9000910020002E08230093009513151555305F
:100DA0009600AA30960095149518D42E1511770840
:100DB0008B04200008004308DD004208DC00DE014F
:100DC000DF01E0016008093C031C292F6008E100F5
:100DD0006108093C031C142F610860020319122FDB
:100DE0000310600D223E8400203085000318850A20
:100DF0000008E20001310008E3003F310310610DFB
:100E0000223E8400203085000318850A0131000845
:100E1000FA003F3100086202031D122F7A086302B4
:100E20000319DE0AE10AE82E5F085E02031C262F82
:100E30000310600D223E8400203085000318850ACF
:100E40000008DC00013FDD005E08DF00DE01E00A93
:100E5000E22E5C08F8005D08F9008831C5292030D1
:100E600085004530840000080319442F0530F80040
:100E7000F701F70B392FF80B382F2E30F700F70B4F
:100E80003F2F422F800B362F080047302300910060
:100E900000309200200073230F138F170E168F144B
:100EA0008F150F140E118E128831D5295C0DF700A5
:100EB000F70DFC30F70521001D08833977049D00EC
:100EC000FF30F8001F08F03978049F001A30F7004F
:100ED000F70B682F00009D149D186C2F1C08200034
:100EE000DD005D08F8000800DC0156277808B60030
:100EF0000130DC0056277808B7000230DC005627A6
:100F00007808B8000430DC0056277808B9000530AE
:100F1000DC0056277808BA008831E529E301E201B0
:100F2000E1010130E00063085F02031CB92F031DDB
:100F3000A92F62085E02031CB92F031DA92F6108A7
:100F40005D02031CB92F031DA92F60085C02031C5E
:100F5000B92F0430E400FA30E5002F27E40BAB2F63
:100F60000130E0070318E10A0319E20A0319E30A52
:100F7000932F080021008F1620008F1ABD2F0830F4
:100F8000F700DC01F717D22FF713D22F03108F1AB7
:100F90000314DC0C7717D22F7713F70BC62F5C08DE
:100FA000F800DE2F8430F71B2430F800F80BD62F22
:100FB000D92FF71BC42F771BCC2FC62F08008F13F8
:100FC0000430DC00FA30E5002F27DC0BE22F8F170E
:100FD000A730230091000030920020007323BD0150
:060FE000BC0188318C2ADF
:1010000021000F1222000F120830F80007280000FC
:10101000F8171A28F8132000DD0C220003180F1609
:10102000031C0F1278171A287813F80B0B281828AE
:1010300000000F1684308400840B1C280000F81B6D
:101040000A28781B14282000080081302300910012
:101050000030920080312000732388310F138F13EA
:101060008F100F100E11913023009100003092006C
:1010700080312000732388311430DC00FA30E50021
:1010800080312F278831DC0B3E289C3023009100D3
:101090000030920080312000732388310F178F17A2
:1010A0000E168F148F150F140E158E120800F801EE
:1010B000F901F701FA015F08031D61285E080319B1
:1010C0007B281030E0000310DC0DDD0DF70DFA0D6C
:1010D0005F087A02031D6E285E087702031C7728DA
:1010E0005E08F702031CFA035F08FA020314F80D06
:1010F000F90DE00B63288831B82A6F302300910086
:101100000030920080312000732388318F130E1637
:101110008F108F150F108831E22A5C302300910068
:101120000030920080312000732388318F170E1613
:101130008F148F150F148E128831F32A21008D130E
:1011400022008D1721000F1222000F162000AA0185
:10115000A901AB01AC01AD01AF01AE01BD01BC0104
:10116000BE01C0010230BF0023008C018D018E0141
:101170008F019001220092019101C7280B34403465
:1011800030340034143440344234003400340830F5
:101190008500BE30840085171200F700003A03195D
:1011A000E1281200F800F81BD9280F398700120037
:1011B0008600781B1200781F12001E00F70BDB2838
:1011C000CC2821000E1120000E1121008E112000CC
:1011D0008E1121000E1220000E1221008E1220000E
:1011E0008E1221000F1020000F1021008F10200000
:1011F0008F1021000F1120000F1121008F112000EE
:101200008F1121000F1320000F1321008F132000D6
:101210008F1321000D1120000D1121008D122000CF
:101220008D1621001E169E161E139E131D141E10D1
:101230009E101E112F3023008C00033090000030D0
:101240008D008F0007082000111087309800990149
:101250009815210011148B16C0308B0420009601C4
:1012600080309700960121001508C0390738950095
:10127000FF30200095008930230091000230920059
:101280008031200073238831A73023009100023081
:1012900092008031200073238831C53023009100F3
:1012A0000230920080312000732388318031C92BB5
:1012B0008831053023009100951315141308200080
:1012C000DC0008302300910095131514130820004A
:1012D000DD005C08DF005D08DE005E0F76295F0F31
:1012E0007629AF01AE01803193248831440842024F
:1012F000031DC32945084302031DC32946084402B0
:10130000031DC32947084502031DC3294808460297
:10131000031DC32949084702031DC3294A0848027F
:10132000031DC3294B084902031DC3294C084A0267
:10133000031DC3294D084B02031DC3294E084C024F
:10134000031DC3294F084D02031DC32950084E0237
:10135000031DC32951084F02031DC329520850021F
:10136000031DC32953085102031DC3295408520207
:10137000031DC32955085302031DC3294308AF00A9
:101380004208AE00CA298031DB2E88317908AF00CF
:101390007808AE000230DC00FA30E50080312F27FB
:1013A0008831DC0BCC298031452F88318E30B0005C
:1013B0002B08B1002C08B2002D08B300DD012F0866
:1013C000B4002E08B5008031742F88312C081E3CE3
:1013D000031DF8292D08013C031CF8290F170E15D1
:1013E000DF01DE01DD013C30DC0080318E278831F9
:1013F000D901D801D701D601D908031D1A2AD80866
:10140000031D1A2AD708031D1A2A5608633C031C19
:101410001A2A8F1A112A8031BA2788317808BB001E
:101420001A2A0130D6070318D70A0319D80A031954
:10143000D90AFC293B08283C031D462AE330230037
:101440009100023092008031200073238831BB016B
:10145000BD01BC01DA015A080A3C031C3C2A1030C9
:101460005A078400203085000318850A0008DC0034
:10147000DD000020DA0A2B2AF73023009100023029
:10148000920080312000732388318D2A3B08BC3CB8
:10149000031D6D2A05302300910003309200803136
:1014A000200073238831BB01BD01BC018E16CB30F7
:1014B000DD000020DF01DE01DD012D30DC008031A8
:1014C0008E2788318E121330230091000330920052
:1014D00080312000732388318D2A3B08273C031D6F
:1014E0007F2ABB01BD01BC012130230091000330E4
:1014F0009200803120007323883125208D2A3D08F9
:101500001B3C03188D2AFF3A031D8A2A3C081F3C06
:1015100003188D2A8031DF2F8831DB015B08633CA3
:10152000031CB02A0030F80021001D08833978041C
:101530009D00FF30F8001F08F03978049F00A02AB2
:10154000A12A9D149D18A22A1C082000A90700307A
:10155000AA3D0230F700F70BAB2A0000DB0A8E2A07
:101560002A08DD002908DC00DF016430DE0057288E
:101570007908AA007808A900AA08031DE52A290805
:10158000873C031CE52A3F08023C031DE52AC008EE
:10159000031DE52A8F10AA30DD0000208031BA2714
:1015A00088317808273C0319CB2A3D30230091006D
:1015B000033092008031200073238831BB01BD01CC
:1015C000BC017D28C001BF01F62AAA08031DEC2A30
:1015D0002908863C0318F62ABF08031DF62AC0080E
:1015E000031DF62A8D28C0010230BF00AA01A901FF
:1015F0003E0B162B8031932488318F10AA30DD00EA
:1016000000208031BA2788317808273C0319FE2A48
:101610005930230091000330920080312000732361
:101620008831BB01BD01BC012520BE01D629630064
:020000040001F9
:04000E00C239FF1ED6
:00000001FF
;PIC16F1789
;CRC=D30F  CREATED="01-Feb-19 20:35"
